:100000000C9454000C94F6010C9400020C947100B2
:100010000C9471000C9471000C9471000C9471009C
:100020000C9471000C9471000C9471000C940704F2
:100030000C9471000C9471000C94D1010C9471001B
:100040000C9471000C9471000C9471000C9471006C
:100050000C9471000C9471000C9471000C9471005C
:100060000C9471000C94710015151F0E04041504F6
:10007000040D1715110A0404060810101F100807B4
:100080000E1111111F191B1F1111111F040404045B
:100090000404040404150E04040E150404040404EA
:1000A00001060C180E03060811241FBECFEFD8E07E
:1000B000DEBFCDBF11E0A0E0B1E0EAE7F6E102C0AB
:1000C00005900D92AA31B107D9F721E0AAE1B1E07C
:1000D00001C01D92A635B207E1F70E94B8050C9445
:1000E0003B0B0C940000569857985E9A5F9A549870
:1000F00055985C9A5D9A089529B126FB222720F92C
:100100004F99226080911A01982F9370291761F0FE
:1001100034E0839FC0011124282B20931A01213E33
:1001200029F081E0223D19F080E008958FEF0895D5
:1001300029B1229521704D99226080911B01982F41
:100140009370291761F034E0839FC0011124282B9C
:1001500020931B01213E29F081E0223D19F080E02F
:1001600008958FEF089594B1976094B997B19C6307
:1001700097B92998662311F0289A01C028982A9ADD
:1001800098B1937C98B983FD459A82FD449A81FD8C
:10019000439A80FD429A8AE18A95F1F700C02A9835
:1001A000089594B1976094B9299A882311F0289AF8
:1001B00001C028982A9A87B1837C87B988B18C635B
:1001C00088B98AE18A95F1F700C02A98359902C06A
:1001D00080E001C088E0349984603399826032996C
:1001E00081600895CF93DF93C82F0E94D100D82F4C
:1001F000D295D07F8C2F0E94D1008D2BDF91CF9193
:100200000895CF93DF93C82FD62F82958F700E94C9
:10021000B3006D2F8C2FDF91CF910C94B30080E051
:100220000E94F200880F880B08950E940F0181112F
:10023000FCCF60E082E00E94B3000E940F018111B8
:10024000FCCF60E088E20E9401010E940F01811151
:10025000FCCF60E081E00E9401010E940F0181114A
:10026000FCCF60E086E00E9401010E940F01811135
:10027000FCCF60E08CE00C9401010E940F01811121
:10028000FCCF60E081E00C9401011F93CF93DF93DA
:100290001F92CDB7DEB7182F69830E940F016981C5
:1002A0008111FACF862F90E4199F800D112460E010
:1002B00080680F90DF91CF911F910C940101CF9333
:1002C000DF93EC0108C00E940F018111FCCF61E0B7
:1002D00089910E94010188818111F5CFDF91CF9131
:1002E00008950F931F93CF93DF93182FEB010E9474
:1002F0000F018111FCCF28E0129FC001112460E0A2
:1003000080640E9401018E01085F1F4F0E940F014F
:100310008111FCCFFE012196849161E00E940101D0
:10032000C017D10799F70E940F018111FCCF60E03F
:1003300080E8DF91CF911F910F910C94010182E031
:1003400084BD93E095BD80936E008AEF87BD0895CC
:100350000F931F938FB7F89400911C0110911D010A
:1003600020911E0130911F018FBFB801C9011F915B
:100370000F910895E4E6F0E080818F7D8083EEE6C2
:10038000F0E080818260808308958FB7F8941092A6
:100390001C0110921D0110921E0110921F018FBFAF
:1003A00008951F920F920FB60F9211248F939F936F
:1003B000AF93BF9380911C0190911D01A0911E01EC
:1003C000B0911F010196A11DB11D80931C01909356
:1003D0001D01A0931E01B0931F01BF91AF919F918A
:1003E0008F910F900FBE0F901F9018951F920F9234
:1003F0000FB60F9211240F900FBE0F901F901895FB
:100400001F920F920FB60F9211242F933F934F9389
:100410005F936F937F938F939F93AF93BF93EF936C
:10042000FF934B9B0CC081E08093240181E090E01E
:1004300090932101809320010E94C5010AC010926F
:100440002401109221011092200110922301109298
:10045000220180912A0190912B01846090932B01BD
:1004600080932A01FF91EF91BF91AF919F918F915E
:100470007F916F915F914F913F912F910F900FBEA0
:100480000F901F901895CF92DF92EF92FF922DE080
:1004900088E190E00FB6F894A895809360000FBEB5
:1004A000209360000E94150180E090E00E943B0ACA
:1004B0006C01EE24D7FCE094FE2CC0925201D09245
:1004C0005301E0925401F092550183E090E00E94C4
:1004D0003B0ABC0180E090E00E94C60620E030E0CC
:1004E00040E251E40E942D0660932601709327019B
:1004F00080932801909329018DE2C81681E0D806E7
:10050000E104F10490F08CE890E0A0E0B0E080938A
:10051000520190935301A0935401B09355016CE89C
:1005200070E080E090E00E94410AC0902601D090E7
:100530002701E0902801F090290120E030E040EA16
:1005400050E4C701B6010E94780718164CF020E06D
:1005500030E0A901C701B6010E94290687FF12C039
:1005600080E090E0A0E8BFE380932601909327010C
:10057000A0932801B09329016AE070E083E090E045
:100580000E94410A0E949F010E94BA0180EA9FE0F6
:100590009093890080938800809181008860809387
:1005A000810080916F00826080936F008091810054
:1005B000856080938100259A2D98249A2C9A239AFD
:1005C0002B9A509A589A509A589A3998419A529818
:1005D0005A9A53985B9A80916900807F8093690052
:1005E000809169008560809369008DB383608DBBC5
:1005F0000E94730060EA70E08AE00E94710168E97D
:1006000070E08BE00E94710160E970E08CE00E9474
:10061000710168E870E08DE00E94710160E870E0AF
:100620008EE00E94710168E770E08FE00E94710126
:1006300060E770E089E00E94710168E670E088E0A0
:100640000E94710110923D0110923C0183E090E004
:1006500090932B0180932A017894FF90EF90DF9084
:10066000CF900895CF92DF92EF92FF920F931F9356
:10067000CF93DF9380912A0190912B01892B09F46C
:10068000BDC080913C0190913D01892B09F0B6C01D
:100690000E943D01809155018F93809154018F9369
:1006A000809153018F93809152018F9380E091E06C
:1006B0009F938F93CCE2D1E0DF93CF930E943D08CC
:1006C000CE010E945F0160E081E00E944501C09080
:1006D0002601D0902701E0902801F0902901C70160
:1006E000B6010E9495068B01882777FD8095982F8B
:1006F0000E94C8069B01AC01C701B6010E94C40557
:1007000020E030E040E251E40E947C070E94DF07D5
:100710000E9495067F936F931F930F938AE091E059
:100720009F938F93DF93CF930E943D08CE010E9449
:100730005F01809123012DB73EB7205F3F4F0FB679
:10074000F8943EBF0FBE2DBF882361F06BE081E0BF
:100750000E9445018AE080932C0110922D01CE0168
:100760000E945F0180912401882369F06EE081E09E
:100770000E9445018DE080932C0110922D018CE2A6
:1007800091E00E945F0180912001909121010197E9
:1007900069F46BE080E00E94450189E080932C01C0
:1007A00010922D018CE291E00E945F018091200166
:1007B00090912101029769F46BE080E00E9445016D
:1007C00088E080932C0110922D018CE291E00E9430
:1007D0005F0180912501882369F06EE080E00E942E
:1007E00045018FE080932C0110922D018CE291E065
:1007F0000E945F0110922B0110922A01DF91CF918C
:100800001F910F91FF90EF90DF90CF9008951F926E
:100810000F920FB60F9211242F933F934F935F9334
:100820006F937F938F939F93AF93BF93EF93FF93B8
:100830000E943203FF91EF91BF91AF919F918F91F1
:100840007F916F915F914F913F912F910F900FBECC
:100850000F901F901895CF92DF92EF92FF920E9417
:100860007C00813099F48091520190915301A091C4
:100870005401B09155010097A105B10591F1BC015A
:10088000CD01615071098109910916C08F3F49F569
:100890008091520190915301A0915401B091550162
:1008A0008C3221E09207A105B105D8F4BC01CD013D
:1008B0006F5F7F4F8F4F9F4F609352017093530133
:1008C000809354019093550120912A0130912B017E
:1008D000216030932B0120932A0180E090E00E9458
:1008E000410A0E9498008130D9F4C0902601D0902E
:1008F0002701E0902801F090290120E030E0A901D3
:10090000C701B6010E94780718160CF04DC02DECF7
:100910003CEC4CEC5DE3C701B6010E94C4051DC070
:100920008F3F09F041C0C0902601D0902701E09090
:100930002801F090290120E030E040EA50E4C701AE
:10094000B6010E94290687FF2FC02DEC3CEC4CEC31
:100950005DE3C701B6010E94C505FB01462F5F2F6D
:10096000682F792F40932601509327016093280127
:100970007093290120912A0130912B01226030933C
:100980002B0120932A0120E030E040E251E4BF0136
:100990000E947C070E949A0683E090E0FF90EF900F
:1009A000DF90CF900C94410AFF90EF90DF90CF90B2
:1009B0000895CF92DF92EF92FF92809124018823D5
:1009C00009F492C08091200190912101892B61F45A
:1009D00080912301811108C081E090E09093210172
:1009E000809320010E94C501809125018823D1F0C8
:1009F00080912001909121010197A1F482E090E083
:100A000090932101809320010E94C50181E0809391
:100A1000220180912A0190912B01846090932B01F7
:100A200080932A018091200190912101019749F53D
:100A30000E94A8016B017C01209152013091530169
:100A40004091540150915501A8EEB3E00E94260850
:100A50006C157D058E059F05A0F482E090E09093D3
:100A60002101809320010E94C50181E08093220131
:100A700080912A0190912B01846090932B018093A7
:100A80002A0180912001909121010297A9F50E94ED
:100A9000A8010E94C6066B017C0120E030E04AE715
:100AA00054E4609126017091270180912801909172
:100AB00029010E947C079B01AC01C701B6010E947D
:100AC00078071816CCF4109221011092200181E0D1
:100AD0008093230180912A0190912B01846090934F
:100AE0002B0180932A0108C0109222011092230149
:100AF0001092210110922001FF90EF90DF90CF9093
:100B0000089580912201882311F02D9A01C02D981B
:100B100080912301882311F02C9801C02C9A809198
:100B20002501811102C02B9808952B9A0895809178
:100B30002501319B0EC0882349F080912A019091B4
:100B40002B01806290932B0180932A011092250142
:100B50000895811109C080912A0190912B01806232
:100B600090932B0180932A0181E0809325010895C1
:100B70000E944302A8950E942B040E9497050E94A0
:100B8000D9040E948105F6CF5058BB27AA270ED062
:100B900075C166D130F06BD120F031F49F3F11F474
:100BA0001EF45BC10EF4E095E7FB51C1E92F77D14C
:100BB00080F3BA17620773078407950718F071F47A
:100BC0009EF58FC10EF4E0950B2EBA2FA02D0B01D0
:100BD000B90190010C01CA01A0011124FF27591B82
:100BE00099F0593F50F4503E68F11A16F040A22F88
:100BF000232F342F4427585FF3CF469537952795F9
:100C0000A795F0405395C9F77EF41F16BA0B620BF7
:100C1000730B840BBAF09150A1F0FF0FBB1F661F3E
:100C2000771F881FC2F70EC0BA0F621F731F841F81
:100C300048F4879577956795B795F7959E3F08F0A7
:100C4000B3CF9395880F08F09927EE0F9795879566
:100C50000895D9D008F481E008950CD00FC107D1D0
:100C600040F0FED030F021F45F3F19F0F0C0511198
:100C700039C1F3C014D198F39923C9F35523B1F3C3
:100C8000951B550BBB27AA2762177307840738F0FB
:100C90009F5F5F4F220F331F441FAA1FA9F333D05A
:100CA0000E2E3AF0E0E830D091505040E695001C0E
:100CB000CAF729D0FE2F27D0660F771F881FBB1FCA
:100CC000261737074807AB07B0E809F0BB0B802DA4
:100CD000BF01FF2793585F4F2AF09E3F510568F0F0
:100CE000B6C000C15F3FECF3983EDCF38695779584
:100CF0006795B795F7959F5FC9F7880F911D9695F2
:100D0000879597F90895E1E0660F771F881FBB1F4D
:100D1000621773078407BA0720F0621B730B840BFA
:100D2000BA0BEE1F88F7E095089504D06894B111CE
:100D3000D9C00895BCD088F09F5790F0B92F99275B
:100D4000B751A0F0D1F0660F771F881F991F1AF0D6
:100D5000BA95C9F712C0B13081F0C3D0B1E008959F
:100D6000C0C0672F782F8827B85F39F0B93FCCF320
:100D7000869577956795B395D9F73EF490958095CC
:100D8000709561957F4F8F4F9F4F0895E89409C0EC
:100D900097FB3EF490958095709561957F4F8F4FAE
:100DA0009F4F9923A9F0F92F96E9BB279395F695C4
:100DB000879577956795B795F111F8CFFAF4BB0F42
:100DC00011F460FF1BC06F5F7F4F8F4F9F4F16C0A6
:100DD000882311F096E911C0772321F09EE8872F30
:100DE000762F05C0662371F096E8862F70E060E0EC
:100DF0002AF09A95660F771F881FDAF7880F969565
:100E0000879597F90895990F0008550FAA0BE0E808
:100E1000FEEF16161706E807F907C0F012161306BC
:100E2000E407F50798F0621B730B840B950B39F4FC
:100E30000A2661F0232B242B252B21F408950A2662
:100E400009F4A140A6958FEF811D811D089597F9A2
:100E50009F6780E870E060E008959FEF80EC089560
:100E600000240A9416161706180609060895002489
:100E70000A9412161306140605060895092E039403
:100E8000000C11F4882352F0BB0F40F4BF2B11F477
:100E900060FF04C06F5F7F4F8F4F9F4F089557FDD6
:100EA0009058440F551F59F05F3F71F04795880FD8
:100EB00097FB991F61F09F3F79F08795089512166F
:100EC00013061406551FF2CF4695F1DF08C016161B
:100ED00017061806991FF1CF8695710561050894CC
:100EE0000895E894BB2766277727CB0197F90895E3
:100EF0008ADF08F48FEF08950BD0C0CFB1DF28F060
:100F0000B6DF18F0952309F0A2CFA7CF1124EACFBE
:100F1000C6DFA0F3959FD1F3950F50E0551F629F58
:100F2000F001729FBB27F00DB11D639FAA27F00D42
:100F3000B11DAA1F649F6627B00DA11D661F829F69
:100F40002227B00DA11D621F739FB00DA11D621F4E
:100F5000839FA00D611D221F749F3327A00D611D6B
:100F6000231F849F600D211D822F762F6A2F11244D
:100F70009F5750408AF0E1F088234AF0EE0FFF1FA0
:100F8000BB1F661F771F881F91505040A9F79E3FD7
:100F9000510570F05CCFA6CF5F3FECF3983EDCF3D9
:100FA000869577956795B795F795E7959F5FC1F714
:100FB000FE2B880F911D9695879597F908952FD050
:100FC00020F09F3708F48ECF01C01BC0882371F436
:100FD000772321F09850872B762F07C0662311F4D2
:100FE00099270DC09051862B70E060E02AF09A9509
:100FF000660F771F881FDAF7880F9695879597F900
:1010000008959F3F31F0915020F48795779567952B
:10101000B795880F911D9695879597F9089547DFA5
:10102000A0F0BEE7B91788F4BB279F3860F4161606
:10103000B11D672F782F8827985FF7CF8695779512
:101040006795B11D93959639C8F308950E943108AC
:10105000A59F900DB49F900DA49F800D911D11240C
:101060000895A29FB001B39FC001A39F01D0B29F7A
:10107000700D811D1124911D0895AEE0B0E0E3E4F0
:10108000F8E00C94120B0D891E8986E08C831A837C
:1010900009838FEF9FE79E838D83CE014996AC0134
:1010A0006F89788DCE0101960E945F08EF81F885E7
:1010B000E00FF11F10822E96E4E00C942E0BACE0B2
:1010C000B0E0E5E6F8E00C94040B7C016B018A01CA
:1010D000FC0117821682838181FFC6C18824839414
:1010E000912C8C0E9D1EF7019381F60193FD859145
:1010F00093FF81916F01882309F4B2C1853239F4DD
:1011000093FD859193FF81916F01853229F4B70199
:1011100090E00E945C0AE7CF512C312C20E0203275
:10112000A8F48B3261F028F4803251F0833271F4EC
:101130000BC08D3239F0803349F4216028C0226021
:10114000246025C0286023C0206121C027FD27C05E
:10115000382F30533A3078F426FF06C0FAE05F9E0D
:10116000300D1124532E13C08AE0389E300D112407
:10117000332E20620CC08E3221F426FD71C1206412
:1011800006C08C3611F4206802C0883641F4F6019E
:1011900093FD859193FF81916F018111C0CF982FAD
:1011A0009554933018F09052933028F40C5F1F4FF1
:1011B000FFE3F9830DC0833631F0833771F0833557
:1011C00009F05EC023C0F801808189830E5F1F4F44
:1011D00044244394512C540115C03801F2E06F0EA1
:1011E000711CF801A080B18026FF03C0652D70E05E
:1011F00002C06FEF7FEFC5012C870E94510A2C01BE
:1012000083012C856FE7262E222218C03801F2E0D8
:101210006F0E711CF801A080B18026FF03C0652D00
:1012200070E002C06FEF7FEFC5012C870E94460A75
:101230002C012C8550E8252E222A830123FC1CC07A
:1012400006C0B70180E290E00E945C0A3A94832DC8
:1012500090E048165906A8F30FC0F50127FC8591C8
:1012600027FE81915F01B70190E00E945C0A311076
:101270003A94F1E04F1A51084114510471F7EDC04E
:10128000843611F0893641F5F80127FF07C06081E7
:101290007181828193810C5F1F4F08C060817181D1
:1012A000882777FD8095982F0E5F1F4F4FE6B42E4D
:1012B000B22297FF09C090958095709561957F4FF8
:1012C0008F4F9F4FF0E8BF2A2AE030E0A4010E9430
:1012D000880AA82EA81843C0853731F43FEEB32EF4
:1012E000B2222AE030E024C099EFB92EB2228F3624
:1012F000B9F020F4883509F0B3C00DC0803721F073
:10130000883709F0ADC002C020E1B22AB4FE0BC09C
:1013100084E0B82A08C024FF09C0E6E0BE2A06C05F
:1013200028E030E005C020E130E002C020E132E0FA
:10133000F801B7FE07C060817181828193810C5FE3
:101340001F4F06C06081718180E090E00E5F1F4FEB
:10135000A4010E94880AA82EA818FFE7BF22B6FEA3
:101360000BC02B2D2E7FA51450F4B4FE0AC0B2FC86
:1013700008C02B2D2E7E05C07A2C2B2D03C07A2C75
:1013800001C0752C24FF0DC0FE01EA0DF11D808106
:10139000803311F4297E09C022FF06C07394739430
:1013A00004C0822F867809F0739423FD14C020FFB7
:1013B0000FC05A2C731460F4530C5718732C08C0C8
:1013C000B70180E290E02C870E945C0A73942C8520
:1013D0007314B0F304C0731410F4371801C0312C27
:1013E00024FF12C0B70180E390E02C870E945C0AC2
:1013F0002C8522FF1EC021FF03C088E590E002C0BB
:1014000088E790E0B7010CC0822F867891F021FD2B
:1014100002C080E201C08BE227FD8DE2B70190E0BF
:101420000E945C0A06C0B70180E390E00E945C0A5B
:101430005A94A514C0F3AA94F401EA0DF11DB70162
:10144000808190E00E945C0AA110F5CF06C0B70130
:1014500080E290E00E945C0A3A943110F8CF43CECB
:10146000F7012681378102C02FEF3FEFC9012C968B
:10147000E2E10C94200BA8E1B0E042E050E00C94D3
:10148000E80A0E94F60A272F0C94F70AFC0105903F
:10149000615070400110D8F7809590958E0F9F1F76
:1014A0000895FC016150704001900110D8F78095BB
:1014B00090958E0F9F1F08950F931F93CF93DF93E7
:1014C0008C01EB018B8181FD03C00FEF1FEF1AC070
:1014D00082FF0DC02E813F818C819D8128173907A5
:1014E00064F4E881F9810193F983E88306C0E88513
:1014F000F985802F0995892B41F78E819F8101966F
:101500009F838E83C801DF91CF911F910F91089522
:10151000FA01AA27283051F1203181F1E8946F9324
:101520006E7F6E5F7F4F8F4F9F4FAF4FB1E03ED0CA
:10153000B4E03CD0670F781F891F9A1FA11D680F68
:10154000791F8A1F911DA11D6A0F711D811D911D9B
:10155000A11D20D009F468943F912AE0269F112410
:101560003019305D3193DEF6CF010895462F477074
:10157000405D4193B3E00FD0C9F7F6CF462F4F70CF
:10158000405D4A3318F0495D31FD4052419302D02D
:10159000A9F7EACFB4E0A6959795879577956795D3
:1015A000BA95C9F700976105710508959B01AC01D3
:1015B0000A2E06945795479537952795BA95C9F7FA
:1015C000620F731F841F951FA01D0895DC01CB01BE
:1015D000FC01F999FECF06C0F2BDE1BDF89A319643
:1015E00000B40D9241505040B8F70895262FF99954
:1015F000FECF1FBA92BD81BD20BD0FB6F894FA9AF6
:10160000F99A0FBE019608952F923F924F925F92E2
:101610006F927F928F929F92AF92BF92CF92DF9202
:10162000EF92FF920F931F93CF93DF93CDB7DEB767
:10163000CA1BDB0B0FB6F894DEBF0FBECDBF0994FB
:101640002A88398848885F846E847D848C849B8452
:10165000AA84B984C884DF80EE80FD800C811B8160
:10166000AA81B981CE0FD11D0FB6F894DEBF0FBE8F
:0A167000CDBFED010895F894FFCFFF
:10167A005741524D3A20256400004255524E3A20B5
:0A168A0025642E25303164000000B5
:00000001FF
