S017000044656C6179436F6E74726F6C6C65722E73726563FA
S11300000C9454000C940C020C942B020C9471006C
S11300100C9471000C9471000C9471000C94710098
S11300200C9471000C9471000C9471000C94FB03FB
S11300300C9471000C9471000C94E7010C94710001
S11300400C9471000C9471000C9471000C94710068
S11300500C9471000C9471000C9471000C94710058
S11300600C9471000C94710015151F0E04041504F2
S1130070040D1715110A04041111111F04040404BA
S1130080150E041F040E150011111315191111007A
S11300901F101010101010001F1111111111110058
S11300A001060C180E03060811241FBECFEFD8E07A
S11300B0DEBFCDBF11E0A0E0B1E0E6EDF8E102C0A3
S11300C005900D92AE34B107D9F721E0AEE4B1E06A
S11300D001C01D92AD38B207E1F70E94A6060C9448
S11300E0690C0C940000569857985E9A5F9A54983D
S11300F055985C9A5D9A089599B196FB332730F927
S11301004F99326020914F01822F8370381769F024
S113011044E0249FC0011124932F982B90934F0106
S1130120913E29F081E0923D19F080E008958FEF2F
S1130130089599B194FB332730F94D993260209199
S11301404E01822F8370381769F044E0249FC00168
S11301501124932F982B90934E01913E29F081E026
S1130160923D19F080E008958FEF089594B197605F
S113017094B997B19C6397B92998662311F0289A8A
S113018001C0289898B1937C98B983FD459A82FD63
S1130190449A81FD439A80FD429A2A9A8AE18A957B
S11301A0F1F700C02A98089594B1976094B9299AF8
S11301B0882311F0289A01C028982A9A87B1837C51
S11301C087B988B18C6388B98AE18A95F1F700C050
S11301D02A98359B02C088E001C080E0349984608D
S11301E033998260329981600895CF93DF93C82F49
S11301F00E94D400D82FD295D07F8C2F0E94D40097
S11302008D2BDF91CF910895CF93DF93C82FD62FF5
S113021082958F700E94B6006D2F8C2FDF91CF9145
S11302200C94B60080E00E94F500880F880B0895B6
S113023060E083E00E94B6008FE19EE40197F1F74D
S113024000C0000060E083E00E94B60087EB91E00C
S11302500197F1F700C0000060E083E00E94B6005F
S11302600E9412018111FCCF60E082E00E94B6007E
S11302700E9412018111FCCF60E088E20E94040117
S11302800E9412018111FCCF60E081E00E94040110
S11302900E9412018111FCCF60E086E00E940401FB
S11302A00E9412018111FCCF60E08CE00C940401E7
S11302B0CF93DF93D82FC62F0E9412018111FCCF58
S11302C08C2F90E4D99F800D112460E080680E94F7
S11302D00401C0E00E941201882311F0C1E0FACFAA
S11302E08C2FDF91CF9108950F931F93CF93DF93BA
S11302F0EC018E018881882359F00E94120181113A
S1130300FCCF219661E0F80180810E940401F1CFC5
S1130310DF91CF911F910F9108950F931F93CF9366
S1130320DF93182FEB010E9412018111FCCF28E00A
S1130330129FC001112460E080640E9404018E01B8
S1130340085F1F4F0E9412018111FCCFFE018491AE
S113035061E00E94040121960C171D0799F70E9481
S113036012018111FCCF60E080E8DF91CF911F91F1
S11303700F910C94040182E084BD93E095BD8093B9
S11303806E008AEF87BD08952FB7F89460915001ED
S11303907091510180915201909153012FBF0895A2
S11303A0E4E6F0E080818F7D8083EEE6F0E08081FA
S11303B08260808308958FB7F89410925001109250
S11303C0510110925201109253018FBF08951F9250
S11303D00F920FB60F9211248F939F93AF93BF93F5
S11303E08091500190915101A0915201B09153011B
S11303F00196A11DB11D8093500190935101A093CA
S11304005201B0935301BF91AF919F918F910F907F
S11304100FBE0F901F9018951F920F920FB60F9258
S113042011248F939F934A9B04C081E080935601CB
S113043002C01092560180915F0190916001846026
S11304409093600180935F019F918F910F900FBEF5
S11304500F901F9018951F920F920FB60F921124B0
S11304602F933F934F935F936F937F938F939F93B8
S1130470AF93BF93EF93FF934B9B0CC081E08093AA
S1130480590181E090E090935501809354010E94BA
S1130490DB010AC0109259011092550110925401C7
S11304A0109258011092570180915F019091600160
S11304B084609093600180935F01FF91EF91BF91FD
S11304C0AF919F918F917F916F915F914F913F91E8
S11304D02F910F900FBE0F901F9018958F929F929F
S11304E0AF92BF92CF92DF92EF92FF92CF93DF93BE
S11304F080915F0190916001892B41F480915401B6
S113050090915501181619060CF06AC18091720178
S113051090917301892B09F063C1809154019091EA
S113052055010197F1F58091560181113AC060910E
S1130530890170918A0180918B0190918C010E94B4
S1130540CC076B017C010E94C4010E94CC0720E00F
S113055030E04AE754E40E9424079B01AC01C70140
S1130560B6010E94B2060E9496077F936F93809112
S11305708A018F93809189018F9380E091E09F930A
S11305808F9381E691E09F938F930E9456092DB734
S11305903EB7285F3F4F0FB6F8943EBF0FBE2DBF46
S11305A06EC08091540190915501029709F051C099
S11305B0C0905B01D0905C01E0905D01F0905E0121
S11305C00E94C4010E94CC0720E030E04AE754E4D2
S11305D00E9424079B01AC01C701B6010E94B20628
S11305E04B015C010E9496076B017C01072E000CF5
S11305F0880B990B0E94CE079B01AC01C501B40185
S11306000E94B20620E030E040E251E40E948308F8
S11306100E94F0080E9496077F936F93DF92CF9217
S113062080918A018F93809189018F9381E191E078
S11306309F938F9381E691E09F938F930E94560935
S11306408DB79EB70A960FB6F8949EBF0FBE8DBFA6
S113065016C080918A018F93809189018F9386E2DD
S113066091E09F938F9381E691E09F938F930E94F3
S113067056090F900F900F900F900F900F90DBE0A2
S1130680D0936101CCE0C093640180905B019090B1
S11306905C01A0905D01B0905E01C501B4010E94AF
S11306A096076B017C01072E000C880B990B0E94A6
S11306B0CE079B01AC01C501B4010E94B20620E043
S11306C030E040E251E40E9483080E94F0080E9456
S11306D096077F936F93DF92CF9287E391E09F9386
S11306E08F9388E791E09F938F930E945609D0934C
S11306F078018FE080937B018EE080937C01C0932E
S11307007D01809158012DB73EB7285F3F4F0FB64A
S1130710F8943EBF0FBE2DBF882319F08AE0809362
S1130720870180915901882319F08DE08093850118
S11307308091540190915501019719F489E08093B7
S113074083018091540190915501029719F488E036
S11307508093830180915A01882349F08091540148
S113076090915501029719F085E480936E01809170
S11307705601882349F080915401909155010297C4
S113078019F080E580937001109271011092880134
S113079060E080E00E945801811108C00E941801A5
S11307A081E090E09093600180935F0181E691E0A5
S11307B00E94740160E081E00E945801811108C028
S11307C00E94180181E090E09093600180935F01A2
S11307D088E791E00E9474011092600110925F0119
S11307E0DF91CF91FF90EF90DF90CF90BF90AF90CB
S11307F09F908F9008951F920F920FB60F9211241D
S11308002F933F934F935F936F937F938F939F9314
S1130810AF93BF93EF93FF930E946E02FF91EF910A
S1130820BF91AF919F918F917F916F915F914F9104
S11308303F912F910F900FBE0F901F901895CF925C
S1130840DF92EF92FF929DE088E10FB6F894A895AD
S1130850809360000FBE909360000E94180180E0B6
S113086090E00E94090C6C01990FEE08FF08C092F9
S11308708901D0928A01E0928B01F0928C0183E08D
S113088090E00E94090CBC0180E090E00E94CC073B
S113089020E030E040E251E40E94240760935B01D1
S11308A070935C0180935D0190935E018DE2C816A4
S11308B081E0D806E104F10490F08CE890E0A0E037
S11308C0B0E08093890190938A01A0938B01B09347
S11308D08C016CE870E080E090E00E940F0CC09006
S11308E05B01D0905C01E0905D01F0905E0120E03E
S11308F030E040EA50E4C701B6010E947E081816B1
S11309004CF020E030E0A901C701B6010E941F07A6
S113091087FF12C080E090E0A0E8BFE380935B0112
S113092090935C01A0935D01B0935E016AE070E076
S113093083E090E00E940F0C0E94BB010E94D00152
S113094080EA9FE0909389008093880080918100E1
S113095088608093810080916F00826080936F0033
S113096080918100856080938100259A2D98249A36
S11309702C9A239A2B9A509A589A509A589A4B9B8D
S113098004C081E08093590102C0109259014A9B2E
S113099004C081E08093560102C010925601399838
S11309A0419A52985A9A53985B9A80916900807F31
S11309B080936900809169008560809369008DB39C
S11309C083608DBB0E94730060EA70E08AE00E943D
S11309D08D0168E770E08DE00E948D0160E770E0B2
S11309E089E00E948D0168E670E088E00E948D0134
S11309F068E970E08BE00E948D0160E970E08CE0B2
S1130A000E948D0160E870E08FE00E948D0168E82B
S1130A1070E08EE00E948D011092730110927201B9
S1130A2083E090E09093600180935F017894FF905D
S1130A30EF90DF90CF900895CF92DF92EF92FF92E4
S1130A400E947C00813099F48091890190918A01FF
S1130A50A0918B01B0918C010097A105B10591F192
S1130A60BC01CD01615071098109910916C08F3F04
S1130A7049F58091890190918A01A0918B01B091EF
S1130A808C018C3221E09207A105B105D8F4BC0198
S1130A90CD016F5F7F4F8F4F9F4F6093890170939C
S1130AA08A0180938B0190938C0120915F01309196
S1130AB0600121603093600120935F0180E090E049
S1130AC00E940F0C0E9499008130D9F4C0905B0100
S1130AD0D0905C01E0905D01F0905E0120E030E098
S1130AE0A901C701B6010E947E0818160CF046C081
S1130AF02DEC3CEC4CEC5DE3C701B6010E94B20660
S1130B001CC08F3FD9F5C0905B01D0905C01E09090
S1130B105D01F0905E0120E030E040EA50E4C7015E
S1130B20B6010E941F0787FF29C02DEC3CEC4CEC5A
S1130B305DE3C701B6010E94B30660935B01709345
S1130B405C0180935D0190935E0120915F0130917F
S1130B50600122603093600120935F0120E030E067
S1130B6040E251E40E9483080E949D0783E090E0E4
S1130B70FF90EF90DF90CF900C940F0CFF90EF90CC
S1130B80DF90CF900895CF92DF92EF92FF92809101
S1130B905901882309F496C080915401909155011C
S1130BA0892B61F480915801811108C081E090E0A3
S1130BB090935501809354010E94DB0180915A0166
S1130BC08823D1F080915401909155010197A1F4AB
S1130BD082E090E090935501809354010E94DB01E0
S1130BE081E08093570180915F019091600184605E
S1130BF09093600180935F0180915401909155011D
S1130C00019769F580915601811129C00E94C401A0
S1130C106B017C012091890130918A0140918B0103
S1130C2050918C01A8EEB3E00E943C096C157D053F
S1130C308E059F05A0F482E090E090935501809387
S1130C4054010E94DB0181E08093570180915F0190
S1130C509091600184609093600180935F01809122
S1130C605401909155010297A9F50E94C4010E9474
S1130C70CC076B017C0120E030E04AE754E460914A
S1130C805B0170915C0180915D0190915E010E9415
S1130C9083089B01AC01C701B6010E947E081816A7
S1130CA0CCF4109255011092540181E080935801C4
S1130CB080915F01909160018460909360018093C2
S1130CC05F0108C01092570110925801109255010B
S1130CD010925401FF90EF90DF90CF90089580918F
S1130CE05701882311F02D9A01C02D988091580145
S1130CF0882311F02C9801C02C9A80915A018111FB
S1130D0002C02B9808952B9A089580915A01319B23
S1130D100EC0882349F080915F0190916001806248
S1130D209093600180935F0110925A01089581119C
S1130D3009C080915F01909160018062909360018D
S1130D4080935F0181E080935A0108950E941F04FB
S1130D50A8950E941C050E9485060E94C3050E9456
S1130D606F06F6CF5058BB27AA270E94CA060C94D8
S1130D7044080E94360838F00E943D0820F039F4F7
S1130D809F3F19F426F40C9433080EF4E095E7FB26
S1130D900C942D08E92F0E94550858F3BA176207DE
S1130DA073078407950720F079F4A6F50C94770867
S1130DB00EF4E0950B2EBA2FA02D0B01B901900172
S1130DC00C01CA01A0011124FF27591B99F0593FB6
S1130DD050F4503E68F11A16F040A22F232F342FFE
S1130DE04427585FF3CF469537952795A795F0404C
S1130DF05395C9F77EF41F16BA0B620B730B840B61
S1130E00BAF09150A1F0FF0FBB1F661F771F881F18
S1130E10C2F70EC0BA0F621F731F841F48F4879570
S1130E2077956795B795F7959E3F08F0B0CF939562
S1130E30880F08F09927EE0F9795879508950E94DB
S1130E40090808F481E008950E9438070C944408C6
S1130E500E943D0858F00E94360840F029F45F3F94
S1130E6029F00C942D0851110C9478080C94330833
S1130E700E94550868F39923B1F3552391F3951B08
S1130E80550BBB27AA2762177307840738F09F5FA7
S1130E905F4F220F331F441FAA1FA9F335D00E2E14
S1130EA03AF0E0E832D091505040E695001CCAF781
S1130EB02BD0FE2F29D0660F771F881FBB1F261744
S1130EC037074807AB07B0E809F0BB0B802DBF011B
S1130ED0FF2793585F4F3AF09E3F510578F00C94EA
S1130EE02D080C9478085F3FE4F3983ED4F386957C
S1130EF077956795B795F7959F5FC9F7880F911D0B
S1130F009695879597F90895E1E0660F771F881FF6
S1130F10BB1F621773078407BA0720F0621B730BA9
S1130F20840BBA0BEE1F88F7E09508950E949D0785
S1130F306894B1110C94780808950E945D0888F0B3
S1130F409F5798F0B92F9927B751B0F0E1F0660F89
S1130F50771F881F991F1AF0BA95C9F714C0B130CA
S1130F6091F00E947708B1E008950C947708672FF8
S1130F70782F8827B85F39F0B93FCCF386957795F9
S1130F806795B395D9F73EF49095809570956195E2
S1130F907F4F8F4F9F4F0895E89409C097FB3EF40D
S1130FA090958095709561957F4F8F4F9F4F9923B2
S1130FB0A9F0F92F96E9BB279395F6958795779530
S1130FC06795B795F111F8CFFAF4BB0F11F460FFF0
S1130FD01BC06F5F7F4F8F4F9F4F16C0882311F048
S1130FE096E911C0772321F09EE8872F762F05C05C
S1130FF0662371F096E8862F70E060E02AF09A95F7
S1131000660F771F881FDAF7880F9695879597F9EB
S11310100895990F0008550FAA0BE0E8FEEF161685
S11310201706E807F907C0F012161306E407F507D8
S113103098F0621B730B840B950B39F40A2661F04C
S1131040232B242B252B21F408950A2609F4A140EF
S1131050A6958FEF811D811D089597F99F6780E8FC
S113106070E060E008959FEF80EC089500240A94F6
S11310701616170618060906089500240A9412166F
S11310801306140605060895092E0394000C11F4A2
S1131090882352F0BB0F40F4BF2B11F460FF04C04F
S11310A06F5F7F4F8F4F9F4F089557FD9058440FA8
S11310B0551F59F05F3F71F04795880F97FB991FB3
S11310C061F09F3F79F08795089512161306140670
S11310D0551FF2CF4695F1DF08C0161617061806FD
S11310E0991FF1CF86957105610508940895E894D8
S11310F0BB2766277727CB0197F908950E94090833
S113110008F48FEF08950E9496080C9444080E94F6
S1131110360838F00E943D0820F0952311F00C9415
S11311202D080C94330811240C9478080E94550857
S113113070F3959FC1F3950F50E0551F629FF00126
S1131140729FBB27F00DB11D639FAA27F00DB11D3F
S1131150AA1F649F6627B00DA11D661F829F2227C8
S1131160B00DA11D621F739FB00DA11D621F839F4F
S1131170A00D611D221F749F3327A00D611D231F25
S1131180849F600D211D822F762F6A2F11249F5773
S113119050409AF0F1F088234AF0EE0FFF1FBB1F76
S11311A0661F771F881F91505040A9F79E3F510535
S11311B080F00C942D080C9478085F3FE4F3983E7B
S11311C0D4F3869577956795B795F795E7959F5FDF
S11311D0C1F7FE2B880F911D9695879597F9089571
S11311E00E94240930F09F3710F40C9478080C9472
S11311F0FB080C941609882371F4772321F0985086
S1131200872B762F07C0662311F499270DC09051C0
S1131210862B70E060E02AF09A95660F771F881F8E
S1131220DAF7880F9695879597F908959F3F31F0DF
S1131230915020F4879577956795B795880F911D00
S11312409695879597F908950E945D08A0F0BEE7EA
S1131250B91788F4BB279F3860F41616B11D672FA1
S1131260782F8827985FF7CF869577956795B11D76
S113127093959639C8F308950E944709A59F900D48
S1131280B49F900DA49F800D911D11240895A29FD9
S1131290B001B39FC001A39F700D811D1124911D46
S11312A0B29F700D811D1124911D0895AEE0B0E030
S11312B0ECE5F9E00C94400C0D891E8986E08C83E2
S11312C01A8309838FEF9FE79E838D83AE01475E68
S11312D05F4F6F89788DCE0101960E947809EF8166
S11312E0F885E00FF11F10822E96E4E00C945C0C5C
S11312F0ABE0B0E0EEE7F9E00C94320C6C017B015A
S11313008A01FC0117821682838181FFCCC1CE0140
S113131001963C01F6019381F70193FD859193FFBA
S113132081917F01882309F4BAC1853239F493FD90
S1131330859193FF81917F01853229F4B60190E074
S11313400E946F0BE7CF912C212C312CFFE1F31578
S1131350D8F08B3279F038F4803279F08332A1F40A
S1131360232D20611DC08D3261F0803369F4232D5B
S1131370216016C0832D8260382EE32DE4603E2E5A
S11313802AC0F32DF8601DC037FC2DC020ED280FB6
S11313902A3040F08E32B9F436FC81C1232D20640A
S11313A0322E19C036FE06C08AE0989E200D112404
S11313B0922E11C0EAE02E9E200D1124222EF32D30
S11313C0F0623F2E08C08C3621F4832D8068382EBD
S11313D002C0883641F4F70193FD859193FF819112
S11313E07F018111B3CF982F9F7D9554933028F4BA
S11313F00C5F1F4F9FE399830DC0833631F0833711
S113140071F0833509F059C021C0F80180818983C6
S11314100E5F1F4F88248394912C530113C028011D
S1131420F2E04F0E511CF801A080B18036FE03C0DB
S1131430692D70E002C06FEF7FEFC5010E94640B5D
S11314404C018201F32DFF773F2E16C0280122E0C4
S1131450420E511CF801A080B18036FE03C0692DF4
S113146070E002C06FEF7FEFC5010E94590B4C0181
S1131470F32DF0683F2E820133FC1BC0822D90E0D7
S113148088169906B0F4B60180E290E00E946F0BD2
S11314902A94F4CFF50137FC859137FE81915F01E1
S11314A0B60190E00E946F0B21102A9421E0821A69
S11314B091088114910471F7E8C0843611F08936DB
S11314C041F5F80137FE07C0608171818281938103
S11314D00C5F1F4F08C060817181072E000C880BC0
S11314E0990B0E5F1F4FF32DFF763F2E97FF09C018
S11314F090958095709561957F4F8F4F9F4FF068C1
S11315003F2E2AE030E0A3010E94AB0B882E861800
S113151045C0853731F4232D2F7EB22E2AE030E0EA
S113152025C0932D997FB92E8F36C1F018F48835D4
S113153079F0B5C0803719F0883721F0B0C0E92FB1
S1131540E061BE2EB4FE0DC0FB2DF460BF2E09C0B9
S113155034FE0AC0292F2660B22E06C028E030E0EF
S113156005C020E130E002C020E132E0F801B7FE1E
S113157007C060817181828193810C5F1F4F06C017
S11315806081718180E090E00E5F1F4FA3010E9493
S1131590AB0B882E8618FB2DFF773F2E36FE0DC031
S11315A0232D2E7FA22E891458F434FE0BC032FC56
S11315B009C0832D8E7EA82E05C0B82CA32C03C091
S11315C0B82C01C0B92CA4FE0FC0FE01E80DF11D1A
S11315D08081803321F49A2D997EA92E09C0A2FE20
S11315E006C0B394B39404C08A2D867809F0B394EA
S11315F0A3FC11C0A0FE06C0B21488F4280C922CDF
S11316009B180EC0B21460F4B60180E290E00E9410
S11316106F0BB394F7CFB21418F42B1802C0982CA4
S1131620212CA4FE10C0B60180E390E00E946F0B51
S1131630A2FE17C0A1FC03C088E790E002C088E5C1
S113164090E0B6010CC08A2D867859F0A1FE02C044
S11316508BE201C080E2A7FC8DE2B60190E00E941B
S11316606F0B891438F4B60180E390E00E946F0B8D
S11316709A94F7CF8A94F301E80DF11D8081B601A5
S113168090E00E946F0B8110F5CF222009F442CE26
S1131690B60180E290E00E946F0B2A94F6CFF60127
S11316A08681978102C08FEF9FEF2B96E2E10C9425
S11316B04E0CFC010590615070400110D8F78095E4
S11316C090958E0F9F1F0895FC016150704001900A
S11316D00110D8F7809590958E0F9F1F08950F9352
S11316E01F93CF93DF93FB01238121FD03C08FEF71
S11316F09FEF2CC022FF16C046815781248135817B
S11317004217530744F4A081B1819D012F5F3F4FDD
S1131710318320838C93268137812F5F3F4F37831A
S1131720268314C08B01EC01FB010084F185E02DBC
S11317300995892BE1F6D80116968D919C911797FE
S1131740019617969C938E931697CE01DF91CF91B5
S11317501F910F910895FA01AA27283051F12031E1
S113176081F1E8946F936E7F6E5F7F4F8F4F9F4F31
S1131770AF4FB1E03ED0B4E03CD0670F781F891F73
S11317809A1FA11D680F791F8A1F911DA11D6A0F41
S1131790711D811D911DA11D20D009F468943F91F4
S11317A02AE0269F11243019305D3193DEF6CF01F3
S11317B00895462F4770405D4193B3E00FD0C9F7B9
S11317C0F6CF462F4F70405D4A3318F0495D31FD26
S11317D04052419302D0A9F7EACFB4E0A695979579
S11317E0879577956795BA95C9F70097610571054F
S11317F008959B01AC010A2E069457954795379599
S11318002795BA95C9F7620F731F841F951FA01DF2
S11318100895A8E1B0E042E050E00C94160C0E9458
S1131820240C272F0C94250CDC01CB01FC01F99925
S1131830FECF06C0F2BDE1BDF89A319600B40D9218
S113184041505040B8F70895262FF999FECF1FBA9A
S113185092BD81BD20BD0FB6F894FA9AF99A0FBED5
S1131860019608952F923F924F925F926F927F92CA
S11318708F929F92AF92BF92CF92DF92EF92FF929C
S11318800F931F93CF93DF93CDB7DEB7CA1BDB0B48
S11318900FB6F894DEBF0FBECDBF09942A883988ED
S11318A048885F846E847D848C849B84AA84B984F4
S11318B0C884DF80EE80FD800C811B81AA81B98100
S11318C0CE0FD11D0FB6F894DEBF0FBECDBFED0114
S10918D00895F894FFCF17
S11318D620504F205045423A253364202533642056
S11318E60020504F205045423A25336420202531AC
S11318F6642E2531640020504F205045423A25334A
S11319066420202020200020504F2020203A25311A
S1111916642E25303164202020202020000083
S9030000FC
